S01700004763634170706C69636174696F6E322E737265635A
S113000045C0000060C000005EC000005CC000008D
S11300105AC0000084C00000F9C000006EC1000096
S1130020E3C1000050C000004EC000004CC00000FE
S11300304AC0000048C0000046C0000044C00000A0
S113004042C0000040C0000046C200003CC00000A6
S11300503AC0000038C0000036C0000034C00000C0
S113006032C0000030C000002EC000002CC00000D0
S11300702AC0000028C0000026C0000024C00000E0
S113008022C0000020C000001EC0000011241FBEBA
S1130090CFEFD0E1DEBFCDBF11E0A0E0B1E0EEE8EC
S11300A0F5E000E00BBF02C007900D92A230B1074B
S11300B0D9F721E0A2E0B1E001C01D92A231B2075C
S11300C0E1F702D062C29CCFE2E0F1E080E191E08E
S11300D011921192E817F907D9F787E090E090930D
S11300E01101809310018CE090E03BD282B18F70BB
S11300F082B9E1E6F0E0808185658083E2E6F0E0A4
S113010080818A7A808380818565808389B7806FC6
S113011089BF8AB78FEF8ABF579A7894FFCF1F920F
S11301200F920FB60F9211240BB60F922F933F9399
S11301304F935F936F937F938F939F93AF93BF93EB
S1130140CF93DF93EF93FF9380910001909101018E
S113015087309105A0F5FC01EE0FFF1FE050FF4F23
S11301602081318121303105A1F0FC01EE0FFF1F08
S1130170E450FF4F208131812130310551F0FC01E1
S1130180EE0FFF1FE250FF4F2081318121303105F6
S113019041F4880F991FFC01EE5FFE4F118210821B
S11301A00EC0FC01EE0FFF1FEE5FFE4F21E030E0BA
S11301B0318320830196909301018093000181E4AF
S11301C0DCD1C2E0D1E08E81805DD7D18885805DAD
S11301D0D4D18A85805DD1D18C85805DCED182E4F5
S11301E0CCD1FF91EF91DF91CF91BF91AF919F91CE
S11301F08F917F916F915F914F913F912F910F90CC
S11302000BBE0F900FBE0F901F9018951F920F9268
S11302100FB60F9211240BB60F922F933F934F9367
S11302205F936F937F938F939F93AF93BF93CF937A
S1130230DF93EF93FF938091000190910101873048
S11302409105A0F5FC01EE0FFF1FE050FF4F208148
S1130250318122303105A1F0FC01EE0FFF1FE45083
S1130260FF4F208131812230310551F0FC01EE0F26
S1130270FF1FE250FF4F208131812230310541F4CC
S1130280880F991FFC01EE5FFE4F118210820EC091
S1130290FC01EE0FFF1FEE5FFE4F22E030E03183E2
S11302A020830196909301018093000181E465D13C
S11302B0C2E0D1E08E81805D60D18885805D5DD1B2
S11302C08A85805D5AD18C85805D57D182E455D171
S11302D0FF91EF91DF91CF91BF91AF919F918F915A
S11302E07F916F915F914F913F912F910F900BBE32
S11302F00F900FBE0F901F9018951F920F920FB67C
S11303000F9211240BB60F922F933F934F935F9349
S11303106F937F938F939F93AF93BF93CF93DF9309
S1130320EF93FF9380910001909101018730910533
S1130330A0F5FC01EE0FFF1FE050FF4F208131813B
S113034023303105A1F0FC01EE0FFF1FE450FF4FF5
S1130350208131812330310551F0FC01EE0FFF1F64
S1130360E250FF4F208131812330310541F4880F61
S1130370991FFC01EE5FFE4F118210820EC0FC013A
S1130380EE0FFF1FEE5FFE4F23E030E0318320834A
S11303900196909301018093000181E4EED0C2E0C4
S11303A0D1E08E81805DE9D08885805DE6D08A8544
S11303B0805DE3D08C85805DE0D082E4DED0FF9167
S11303C0EF91DF91CF91BF91AF919F918F917F91E9
S11303D06F915F914F913F912F910F900BBE0F90B2
S11303E00FBE0F901F9018951F920F920FB60F9289
S11303F011240BB60F922F933F934F935F936F93F8
S11304007F938F939F93AF93BF93CF93DF93EF9398
S1130410FF93809100019091010187309105A0F52F
S1130420FC01EE0FFF1FE050FF4F2081318124308B
S11304303105A1F0FC01EE0FFF1FE450FF4F2081B6
S113044031812430310551F0FC01EE0FFF1FE250E1
S1130450FF4F208131812430310541F4880F991FE9
S1130460FC01EE5FFE4F118210820EC0FC01EE0F04
S1130470FF1FEE5FFE4F24E030E0318320830196BE
S1130480909301018093000181E477D0C2E0D1E030
S11304908E81805D72D08885805D6FD08A85805D15
S11304A06CD08C85805D69D082E467D0FF91EF9138
S11304B0DF91CF91BF91AF919F918F917F916F9178
S11304C05F914F913F912F910F900BBE0F900FBEF4
S11304D00F901F9018951F920F920FB60F92112430
S11304E00BB60F922F933F934F935F936F937F932A
S11304F08F939F93AF93BF93EF93FF9342D0803337
S1130500B1F483E090E09093010180930001E2E074
S1130510F1E01782168211861086138612861586DC
S11305201486E2E6F0E080818A7A808307C0813312
S113053029F4E2E6F0E0808185658083FF91EF9104
S1130540BF91AF919F918F917F916F915F914F91E7
S11305503F912F910F900BBE0F900FBE0F901F90E5
S113056018959093900089B98AB188618AB9E5E9B0
S1130570F0E080818660808308955D9BFECF8CB916
S111058008955F9BFECF8CB10895F894FFCFD1
S105058E030064
S9030000FC
